S0170000415474696E793834312D42617369632E7372656308
S11300001DC024C023C022C021C020C01FC01EC0E8
S11300101DC01CC01BC01AC019C018C017C016C010
S113002015C014C013C012C011C010C00FC00EC040
S11300300DC00CC00BC00AC009C008C011241FBEEB
S1130040CFEFD2E0DEBFCDBF3BD049C0D9CF90E0E7
S11300509817B1F0C29A2FE73AE146E021503040B8
S11300604040E1F700C00000C2982FE73AE146E0C3
S1130070215030404040E1F700C000009F5FE8CFCE
S113008008951092820027E62093810098E19093CE
S1130090850086E080938400109292002093910062
S11300A09093950080939400BA9A85E0D0CF909174
S11300B0860095FD02C00000FACF80938000089569
S11300C0E0DF81E6F4DF81E0C2DF2FEF83ED90E330
S11300D0215080409040E1F700C00000F2CFF89436
S10500E0FFCF4C
S9030000FC
