:100000001DC024C023C022C021C020C01FC01EC0EC
:100010001DC01CC01BC01AC019C018C017C016C014
:1000200015C014C013C012C011C010C00FC00EC044
:100030000DC00CC00BC00AC009C008C011241FBEEF
:10004000CFEFD2E0DEBFCDBF24D03DC0D9CFBA9A2A
:100050001092820025E02093810098E19093850022
:1000600086E08093840010929200209391009093F8
:1000700095008093940008959091960095FD06C098
:10008000E6E9F0E00000908195FFFCCF80939000BE
:100090000895DDDFC4E0C6BB82E6EEDF2FE986E827
:1000A00091E0215080409040E1F700C0000080E3E3
:1000B000E3DF2FE986E891E0215080409040E1F7AE
:0A00C00000C00000E8CFF894FFCF65
:00000001FF
