:100000001DC024C023C022C021C020C01FC01EC0EC
:100010001DC01CC01BC01AC019C018C017C016C014
:1000200015C014C013C012C011C010C00FC00EC044
:100030000DC00CC00BC00AC009C008C011241FBEEF
:10004000CFEFD2E0DEBFCDBF41D04DC0D9CF8823A6
:10005000C1F090E0C29A2FEF3FE945E021503040D7
:100060004040E1F700C00000C2982FEF3FE945E0B3
:10007000215030404040E1F700C000009F5F9813DE
:10008000E9CF0895109282002FE52093810098E136
:100090009093850086E080938400109292002093D4
:1000A00091009093950080939400BA9A85E0CFDFF9
:1000B00008959091860095FD06C0E6E8F0E0000006
:1000C000908195FFFCCF809380000895DBDF81E66F
:1000D000F0DF2FEF8FEF9CE2215080409040E1F75E
:0A00E00000C00000F4CFF894FFCF39
:00000001FF
